{
  "_format": "hh-sol-artifact-1",
  "contractName": "MockDEXAggregator",
  "sourceName": "contracts/MockDEXAggregator.sol",
  "abi": [
    {
      "inputs": [
        {
          "internalType": "address",
          "name": "token",
          "type": "address"
        }
      ],
      "name": "SafeERC20FailedOperation",
      "type": "error"
    },
    {
      "anonymous": false,
      "inputs": [
        {
          "indexed": true,
          "internalType": "address",
          "name": "tokenIn",
          "type": "address"
        },
        {
          "indexed": true,
          "internalType": "address",
          "name": "tokenOut",
          "type": "address"
        },
        {
          "indexed": false,
          "internalType": "uint256",
          "name": "amountIn",
          "type": "uint256"
        },
        {
          "indexed": false,
          "internalType": "uint256",
          "name": "amountOut",
          "type": "uint256"
        },
        {
          "indexed": true,
          "internalType": "address",
          "name": "to",
          "type": "address"
        }
      ],
      "name": "SwapExecuted",
      "type": "event"
    },
    {
      "inputs": [],
      "name": "MOCK_RATE",
      "outputs": [
        {
          "internalType": "uint256",
          "name": "",
          "type": "uint256"
        }
      ],
      "stateMutability": "view",
      "type": "function"
    },
    {
      "inputs": [
        {
          "internalType": "address",
          "name": "token",
          "type": "address"
        },
        {
          "internalType": "uint256",
          "name": "amount",
          "type": "uint256"
        }
      ],
      "name": "emergencyWithdraw",
      "outputs": [],
      "stateMutability": "nonpayable",
      "type": "function"
    },
    {
      "inputs": [
        {
          "internalType": "address",
          "name": "tokenIn",
          "type": "address"
        },
        {
          "internalType": "address",
          "name": "tokenOut",
          "type": "address"
        },
        {
          "internalType": "uint256",
          "name": "amountIn",
          "type": "uint256"
        }
      ],
      "name": "getAmountOut",
      "outputs": [
        {
          "internalType": "uint256",
          "name": "amountOut",
          "type": "uint256"
        }
      ],
      "stateMutability": "pure",
      "type": "function"
    },
    {
      "inputs": [
        {
          "internalType": "address",
          "name": "token",
          "type": "address"
        }
      ],
      "name": "getBalance",
      "outputs": [
        {
          "internalType": "uint256",
          "name": "",
          "type": "uint256"
        }
      ],
      "stateMutability": "view",
      "type": "function"
    },
    {
      "inputs": [
        {
          "internalType": "address",
          "name": "tokenIn",
          "type": "address"
        },
        {
          "internalType": "address",
          "name": "tokenOut",
          "type": "address"
        },
        {
          "internalType": "uint256",
          "name": "amountIn",
          "type": "uint256"
        },
        {
          "internalType": "uint256",
          "name": "minAmountOut",
          "type": "uint256"
        },
        {
          "internalType": "address",
          "name": "to",
          "type": "address"
        }
      ],
      "name": "swap",
      "outputs": [
        {
          "internalType": "uint256",
          "name": "amountOut",
          "type": "uint256"
        }
      ],
      "stateMutability": "nonpayable",
      "type": "function"
    }
  ],
  "bytecode": "0x608060405234801561001057600080fd5b506105ab806100206000396000f3fe608060405234801561001057600080fd5b50600436106100575760003560e01c80634aa066521461005c57806395ccea6714610081578063d5bcb9b514610096578063f8b2cb4f146100a9578063faa5f0d9146100bc575b600080fd5b61006f61006a366004610436565b6100cb565b60405190815260200160405180910390f35b61009461008f366004610472565b6100ee565b005b61006f6100a436600461049c565b610106565b61006f6100b73660046104f3565b610295565b61006f670de0b6b3a764000081565b60006103e86100dc836103e5610515565b6100e6919061053a565b949350505050565b6101026001600160a01b0383163383610306565b5050565b600080841161015c5760405162461bcd60e51b815260206004820152601d60248201527f416d6f756e74206d7573742062652067726561746572207468616e203000000060448201526064015b60405180910390fd5b6001600160a01b0382166101a65760405162461bcd60e51b8152602060048201526011602482015270125b9d985b1a59081c9958da5c1a595b9d607a1b6044820152606401610153565b6101b18686866100cb565b9050828110156102035760405162461bcd60e51b815260206004820152601a60248201527f496e73756666696369656e74206f757470757420616d6f756e740000000000006044820152606401610153565b6102186001600160a01b03871633308761036a565b61022c6001600160a01b0386168383610306565b816001600160a01b0316856001600160a01b0316876001600160a01b03167fee4825a7988c5519a874be79f2a84d13d02cfe5f74cad97cda2d5b55d2b13bfa8785604051610284929190918252602082015260400190565b60405180910390a495945050505050565b6040516370a0823160e01b81523060048201526000906001600160a01b038316906370a0823190602401602060405180830381865afa1580156102dc573d6000803e3d6000fd5b505050506040513d601f19601f82011682018060405250810190610300919061055c565b92915050565b6040516001600160a01b0383811660248301526044820183905261036591859182169063a9059cbb906064015b604051602081830303815290604052915060e01b6020820180516001600160e01b0383818316178352505050506103a9565b505050565b6040516001600160a01b0384811660248301528381166044830152606482018390526103a39186918216906323b872dd90608401610333565b50505050565b600080602060008451602086016000885af1806103cc576040513d6000823e3d81fd5b50506000513d915081156103e45780600114156103f1565b6001600160a01b0384163b155b156103a357604051635274afe760e01b81526001600160a01b0385166004820152602401610153565b80356001600160a01b038116811461043157600080fd5b919050565b60008060006060848603121561044b57600080fd5b6104548461041a565b92506104626020850161041a565b9150604084013590509250925092565b6000806040838503121561048557600080fd5b61048e8361041a565b946020939093013593505050565b600080600080600060a086880312156104b457600080fd5b6104bd8661041a565b94506104cb6020870161041a565b935060408601359250606086013591506104e76080870161041a565b90509295509295909350565b60006020828403121561050557600080fd5b61050e8261041a565b9392505050565b808202811582820484141761030057634e487b7160e01b600052601160045260246000fd5b60008261055757634e487b7160e01b600052601260045260246000fd5b500490565b60006020828403121561056e57600080fd5b505191905056fea2646970667358221220f699379de18948bbc4b5dd08b8cbaab682469692575965a0dc628ad032868f3e64736f6c63430008140033",
  "linkReferences": {},
  "deployedLinkReferences": {}
}