{
  "_format": "hh-sol-artifact-1",
  "contractName": "TradeExecutor",
  "sourceName": "contracts/TradeExecutor.sol",
  "abi": [
    {
      "inputs": [
        {
          "internalType": "address",
          "name": "_agentRegistry",
          "type": "address"
        },
        {
          "internalType": "address",
          "name": "_dexAggregator",
          "type": "address"
        }
      ],
      "stateMutability": "nonpayable",
      "type": "constructor"
    },
    {
      "inputs": [
        {
          "internalType": "address",
          "name": "owner",
          "type": "address"
        }
      ],
      "name": "OwnableInvalidOwner",
      "type": "error"
    },
    {
      "inputs": [
        {
          "internalType": "address",
          "name": "account",
          "type": "address"
        }
      ],
      "name": "OwnableUnauthorizedAccount",
      "type": "error"
    },
    {
      "inputs": [],
      "name": "ReentrancyGuardReentrantCall",
      "type": "error"
    },
    {
      "inputs": [
        {
          "internalType": "address",
          "name": "token",
          "type": "address"
        }
      ],
      "name": "SafeERC20FailedOperation",
      "type": "error"
    },
    {
      "anonymous": false,
      "inputs": [
        {
          "indexed": true,
          "internalType": "address",
          "name": "previousOwner",
          "type": "address"
        },
        {
          "indexed": true,
          "internalType": "address",
          "name": "newOwner",
          "type": "address"
        }
      ],
      "name": "OwnershipTransferred",
      "type": "event"
    },
    {
      "anonymous": false,
      "inputs": [
        {
          "indexed": true,
          "internalType": "uint256",
          "name": "agentId",
          "type": "uint256"
        },
        {
          "indexed": true,
          "internalType": "bytes32",
          "name": "signalHash",
          "type": "bytes32"
        },
        {
          "indexed": false,
          "internalType": "bool",
          "name": "isValid",
          "type": "bool"
        }
      ],
      "name": "SignalValidated",
      "type": "event"
    },
    {
      "anonymous": false,
      "inputs": [
        {
          "indexed": true,
          "internalType": "uint256",
          "name": "agentId",
          "type": "uint256"
        },
        {
          "indexed": true,
          "internalType": "address",
          "name": "tokenIn",
          "type": "address"
        },
        {
          "indexed": true,
          "internalType": "address",
          "name": "tokenOut",
          "type": "address"
        },
        {
          "indexed": false,
          "internalType": "uint256",
          "name": "amountIn",
          "type": "uint256"
        },
        {
          "indexed": false,
          "internalType": "uint256",
          "name": "amountOut",
          "type": "uint256"
        },
        {
          "indexed": false,
          "internalType": "uint256",
          "name": "executedAt",
          "type": "uint256"
        }
      ],
      "name": "TradeExecuted",
      "type": "event"
    },
    {
      "inputs": [],
      "name": "MAX_SLIPPAGE",
      "outputs": [
        {
          "internalType": "uint256",
          "name": "",
          "type": "uint256"
        }
      ],
      "stateMutability": "view",
      "type": "function"
    },
    {
      "inputs": [],
      "name": "SLIPPAGE_DENOMINATOR",
      "outputs": [
        {
          "internalType": "uint256",
          "name": "",
          "type": "uint256"
        }
      ],
      "stateMutability": "view",
      "type": "function"
    },
    {
      "inputs": [],
      "name": "agentRegistry",
      "outputs": [
        {
          "internalType": "contract IAgentRegistry",
          "name": "",
          "type": "address"
        }
      ],
      "stateMutability": "view",
      "type": "function"
    },
    {
      "inputs": [
        {
          "internalType": "uint256",
          "name": "",
          "type": "uint256"
        },
        {
          "internalType": "uint256",
          "name": "",
          "type": "uint256"
        }
      ],
      "name": "agentTrades",
      "outputs": [
        {
          "internalType": "uint256",
          "name": "agentId",
          "type": "uint256"
        },
        {
          "internalType": "address",
          "name": "tokenIn",
          "type": "address"
        },
        {
          "internalType": "address",
          "name": "tokenOut",
          "type": "address"
        },
        {
          "internalType": "uint256",
          "name": "amountIn",
          "type": "uint256"
        },
        {
          "internalType": "uint256",
          "name": "amountOut",
          "type": "uint256"
        },
        {
          "internalType": "uint256",
          "name": "executedAt",
          "type": "uint256"
        },
        {
          "internalType": "bytes32",
          "name": "txHash",
          "type": "bytes32"
        }
      ],
      "stateMutability": "view",
      "type": "function"
    },
    {
      "inputs": [],
      "name": "dexAggregator",
      "outputs": [
        {
          "internalType": "contract IDEXAggregator",
          "name": "",
          "type": "address"
        }
      ],
      "stateMutability": "view",
      "type": "function"
    },
    {
      "inputs": [],
      "name": "emergencyPause",
      "outputs": [],
      "stateMutability": "nonpayable",
      "type": "function"
    },
    {
      "inputs": [
        {
          "components": [
            {
              "internalType": "uint256",
              "name": "agentId",
              "type": "uint256"
            },
            {
              "internalType": "address",
              "name": "tokenIn",
              "type": "address"
            },
            {
              "internalType": "address",
              "name": "tokenOut",
              "type": "address"
            },
            {
              "internalType": "uint256",
              "name": "amountIn",
              "type": "uint256"
            },
            {
              "internalType": "uint256",
              "name": "minAmountOut",
              "type": "uint256"
            },
            {
              "internalType": "uint256",
              "name": "deadline",
              "type": "uint256"
            },
            {
              "internalType": "bytes",
              "name": "signalData",
              "type": "bytes"
            },
            {
              "internalType": "bytes",
              "name": "signature",
              "type": "bytes"
            }
          ],
          "internalType": "struct TradeExecutor.TradeSignal",
          "name": "_signal",
          "type": "tuple"
        }
      ],
      "name": "executeTrade",
      "outputs": [],
      "stateMutability": "nonpayable",
      "type": "function"
    },
    {
      "inputs": [
        {
          "internalType": "bytes32",
          "name": "",
          "type": "bytes32"
        }
      ],
      "name": "executedSignals",
      "outputs": [
        {
          "internalType": "bool",
          "name": "",
          "type": "bool"
        }
      ],
      "stateMutability": "view",
      "type": "function"
    },
    {
      "inputs": [
        {
          "internalType": "uint256",
          "name": "_agentId",
          "type": "uint256"
        }
      ],
      "name": "getAgentTrades",
      "outputs": [
        {
          "components": [
            {
              "internalType": "uint256",
              "name": "agentId",
              "type": "uint256"
            },
            {
              "internalType": "address",
              "name": "tokenIn",
              "type": "address"
            },
            {
              "internalType": "address",
              "name": "tokenOut",
              "type": "address"
            },
            {
              "internalType": "uint256",
              "name": "amountIn",
              "type": "uint256"
            },
            {
              "internalType": "uint256",
              "name": "amountOut",
              "type": "uint256"
            },
            {
              "internalType": "uint256",
              "name": "executedAt",
              "type": "uint256"
            },
            {
              "internalType": "bytes32",
              "name": "txHash",
              "type": "bytes32"
            }
          ],
          "internalType": "struct TradeExecutor.TradeExecution[]",
          "name": "",
          "type": "tuple[]"
        }
      ],
      "stateMutability": "view",
      "type": "function"
    },
    {
      "inputs": [],
      "name": "owner",
      "outputs": [
        {
          "internalType": "address",
          "name": "",
          "type": "address"
        }
      ],
      "stateMutability": "view",
      "type": "function"
    },
    {
      "inputs": [],
      "name": "renounceOwnership",
      "outputs": [],
      "stateMutability": "nonpayable",
      "type": "function"
    },
    {
      "inputs": [
        {
          "internalType": "address",
          "name": "newOwner",
          "type": "address"
        }
      ],
      "name": "transferOwnership",
      "outputs": [],
      "stateMutability": "nonpayable",
      "type": "function"
    },
    {
      "inputs": [
        {
          "internalType": "address",
          "name": "_newAggregator",
          "type": "address"
        }
      ],
      "name": "updateDEXAggregator",
      "outputs": [],
      "stateMutability": "nonpayable",
      "type": "function"
    }
  ],
  "bytecode": "0x60a06040523480156200001157600080fd5b50604051620013e5380380620013e5833981016040819052620000349162000101565b33806200005b57604051631e4fbdf760e01b81526000600482015260240160405180910390fd5b620000668162000094565b50600180556001600160a01b03918216608052600280546001600160a01b0319169190921617905562000139565b600080546001600160a01b038381166001600160a01b0319831681178455604051919092169283917f8be0079c531659141344cd1fd0a4f28419497f9722a3daafe3b4186f6b6457e09190a35050565b80516001600160a01b0381168114620000fc57600080fd5b919050565b600080604083850312156200011557600080fd5b6200012083620000e4565b91506200013060208401620000e4565b90509250929050565b60805161127c620001696000396000818160d901528181610412015281816105bf01526109aa015261127c6000f3fe608060405234801561001057600080fd5b50600436106100cf5760003560e01c806386ab661d1161008c578063d9207b1211610066578063d9207b121461020c578063f2fde38b1461021f578063f93a513514610232578063f97595181461024557600080fd5b806386ab661d146101b15780638da5cb5b146101e4578063ac905114146101f557600080fd5b80630d1cfcae146100d45780632e1738301461011857806351858e271461013857806351df2ce814610142578063715018a6146101965780637c21d5e01461019e575b600080fd5b6100fb7f000000000000000000000000000000000000000000000000000000000000000081565b6040516001600160a01b0390911681526020015b60405180910390f35b61012b610126366004610d06565b61024e565b60405161010f9190610d1f565b61014061030c565b005b610155610150366004610dad565b610316565b604080519788526001600160a01b03968716602089015294909516938601939093526060850191909152608084015260a083015260c082015260e00161010f565b61014061037d565b6002546100fb906001600160a01b031681565b6101d46101bf366004610d06565b60046020526000908152604090205460ff1681565b604051901515815260200161010f565b6000546001600160a01b03166100fb565b6101fe61271081565b60405190815260200161010f565b61014061021a366004610df4565b61038f565b61014061022d366004610df4565b6103b9565b610140610240366004610e18565b6103fc565b6101fe6103e881565b606060036000838152602001908152602001600020805480602002602001604051908101604052809291908181526020016000905b828210156103015760008481526020908190206040805160e08101825260078602909201805483526001808201546001600160a01b0390811685870152600283015416928401929092526003810154606084015260048101546080840152600581015460a08401526006015460c08301529083529092019101610283565b505050509050919050565b61031461085b565b565b6003602052816000526040600020818154811061033257600080fd5b600091825260209091206007909102018054600182015460028301546003840154600485015460058601546006909601549497506001600160a01b0393841696509290911693909287565b61038561085b565b6103146000610888565b61039761085b565b600280546001600160a01b0319166001600160a01b0392909216919091179055565b6103c161085b565b6001600160a01b0381166103f057604051631e4fbdf760e01b8152600060048201526024015b60405180910390fd5b6103f981610888565b50565b6104046108d8565b8035801580159061049657507f00000000000000000000000000000000000000000000000000000000000000006001600160a01b0316633731a16f6040518163ffffffff1660e01b8152600401602060405180830381865afa15801561046e573d6000803e3d6000fd5b505050506040513d601f19601f820116820180604052508101906104929190610e54565b8111155b6104d55760405162461bcd60e51b815260206004820152601060248201526f125b9d985b1a59081859d95b9d08125160821b60448201526064016103e7565b6000826040516020016104e89190610ee3565b60408051601f1981840301815291815281516020928301206000818152600490935291205490915060ff16156105605760405162461bcd60e51b815260206004820152601760248201527f5369676e616c20616c726561647920657865637574656400000000000000000060448201526064016103e7565b61056983610902565b6105a65760405162461bcd60e51b815260206004820152600e60248201526d125b9d985b1a59081cda59db985b60921b60448201526064016103e7565b604051632de5aaf760e01b8152833560048201526000907f00000000000000000000000000000000000000000000000000000000000000006001600160a01b031690632de5aaf790602401600060405180830381865afa15801561060e573d6000803e3d6000fd5b505050506040513d6000823e601f3d908101601f1916820160405261063691908101906110be565b905060018160c001516003811115610650576106506111a6565b146106905760405162461bcd60e51b815260206004820152601060248201526f4167656e74206e6f742061637469766560801b60448201526064016103e7565b600061069b8561098f565b905060006040518060e00160405280876000013581526020018760200160208101906106c79190610df4565b6001600160a01b031681526020016106e56060890160408a01610df4565b6001600160a01b031681526020018760600135815260200183815260200142815260200160014361071691906111d2565b4090528635600090815260036020818152604080842080546001818101835591865283862087516007909202019081558387015181830180546001600160a01b039283166001600160a01b0319918216179091558489015160028401805491909316911617905560608088015195820195909555608087015160048083019190915560a0880151600583015560c08801516006909201919091558a865290925292839020805460ff191690911790559192506107d6918801908801610df4565b6001600160a01b03166107ef6040880160208901610df4565b6001600160a01b031687600001357fb3556955a489fb1ff1cf2ce48ea54f262b9cb31e1e22a13f66142172e71cb52f89606001358642604051610845939291909283526020830191909152604082015260600190565b60405180910390a450505050506103f960018055565b6000546001600160a01b031633146103145760405163118cdaa760e01b81523360048201526024016103e7565b600080546001600160a01b038381166001600160a01b0319831681178455604051919092169283917f8be0079c531659141344cd1fd0a4f28419497f9722a3daafe3b4186f6b6457e09190a35050565b6002600154036108fb57604051633ee5aeb560e01b815260040160405180910390fd5b6002600155565b60008160a0013542111561091857506000919050565b600061094761092d6040850160208601610df4565b61093d6060860160408701610df4565b8560600135610baf565b9050600061271061095a6103e8846111eb565b6109649190611202565b9050806109756080860135846111d2565b1115610985575060009392505050565b5060019392505050565b604051632de5aaf760e01b81528135600482015260009081907f00000000000000000000000000000000000000000000000000000000000000006001600160a01b031690632de5aaf790602401600060405180830381865afa1580156109f9573d6000803e3d6000fd5b505050506040513d6000823e601f3d908101601f19168201604052610a2191908101906110be565b9050600081602001519050610a5a81308660600135876020016020810190610a499190610df4565b6001600160a01b0316929190610c35565b610a6a6040850160208601610df4565b60025460405163095ea7b360e01b81526001600160a01b0391821660048201526060870135602482015291169063095ea7b3906044016020604051808303816000875af1158015610abf573d6000803e3d6000fd5b505050506040513d601f19601f82011682018060405250810190610ae39190611224565b506002546000906001600160a01b031663d5bcb9b5610b086040880160208901610df4565b610b186060890160408a01610df4565b6040516001600160e01b031960e085901b1681526001600160a01b03928316600482015290821660248201526060890135604482015260808901356064820152908516608482015260a4016020604051808303816000875af1158015610b82573d6000803e3d6000fd5b505050506040513d601f19601f82011682018060405250810190610ba69190610e54565b95945050505050565b600254604051632550332960e11b81526001600160a01b0385811660048301528481166024830152604482018490526000921690634aa0665290606401602060405180830381865afa158015610c09573d6000803e3d6000fd5b505050506040513d601f19601f82011682018060405250810190610c2d9190610e54565b949350505050565b604080516001600160a01b0385811660248301528416604482015260648082018490528251808303909101815260849091019091526020810180516001600160e01b03166323b872dd60e01b179052610c8f908590610c95565b50505050565b600080602060008451602086016000885af180610cb8576040513d6000823e3d81fd5b50506000513d91508115610cd0578060011415610cdd565b6001600160a01b0384163b155b15610c8f57604051635274afe760e01b81526001600160a01b03851660048201526024016103e7565b600060208284031215610d1857600080fd5b5035919050565b602080825282518282018190526000919060409081850190868401855b82811015610da057815180518552868101516001600160a01b0390811688870152868201511686860152606080820151908601526080808201519086015260a0808201519086015260c0908101519085015260e09093019290850190600101610d3c565b5091979650505050505050565b60008060408385031215610dc057600080fd5b50508035926020909101359150565b6001600160a01b03811681146103f957600080fd5b8035610def81610dcf565b919050565b600060208284031215610e0657600080fd5b8135610e1181610dcf565b9392505050565b600060208284031215610e2a57600080fd5b813567ffffffffffffffff811115610e4157600080fd5b82016101008185031215610e1157600080fd5b600060208284031215610e6657600080fd5b5051919050565b6000808335601e19843603018112610e8457600080fd5b830160208101925035905067ffffffffffffffff811115610ea457600080fd5b803603821315610eb357600080fd5b9250929050565b81835281816020850137506000828201602090810191909152601f909101601f19169091010190565b602081528135602082015260006020830135610efe81610dcf565b6001600160a01b038116604084015250610f1a60408401610de4565b6001600160a01b03811660608401525060608301356080830152608083013560a083015260a083013560c0830152610f5560c0840184610e6d565b6101008060e0860152610f6d61012086018385610eba565b9250610f7c60e0870187610e6d565b868503601f1901838801529250610f94848483610eba565b979650505050505050565b634e487b7160e01b600052604160045260246000fd5b604051610140810167ffffffffffffffff81118282101715610fd957610fd9610f9f565b60405290565b604051601f8201601f1916810167ffffffffffffffff8111828210171561100857611008610f9f565b604052919050565b8051610def81610dcf565b600082601f83011261102c57600080fd5b815167ffffffffffffffff81111561104657611046610f9f565b602061105a601f8301601f19168201610fdf565b828152858284870101111561106e57600080fd5b60005b8381101561108c578581018301518282018401528201611071565b506000928101909101919091529392505050565b805160038110610def57600080fd5b805160048110610def57600080fd5b6000602082840312156110d057600080fd5b815167ffffffffffffffff808211156110e857600080fd5b9083019061014082860312156110fd57600080fd5b611105610fb5565b8251815261111560208401611010565b602082015260408301518281111561112c57600080fd5b6111388782860161101b565b60408301525061114a606084016110a0565b606082015261115b608084016110a0565b608082015260a083015160a082015261117660c084016110af565b60c082015260e0838101519082015261010080840151908201526101209283015192810192909252509392505050565b634e487b7160e01b600052602160045260246000fd5b634e487b7160e01b600052601160045260246000fd5b818103818111156111e5576111e56111bc565b92915050565b80820281158282048414176111e5576111e56111bc565b60008261121f57634e487b7160e01b600052601260045260246000fd5b500490565b60006020828403121561123657600080fd5b81518015158114610e1157600080fdfea2646970667358221220208c0b2903234cfe4a6ed1dcf92ca8a1586daa8d31ca685a3aae07386800ab6764736f6c63430008140033",
  "linkReferences": {},
  "deployedLinkReferences": {}
}