{
  "_format": "hh-sol-artifact-1",
  "contractName": "PerformanceTracker",
  "sourceName": "contracts/PerformanceTracker.sol",
  "abi": [
    {
      "inputs": [
        {
          "internalType": "address",
          "name": "_agentRegistry",
          "type": "address"
        }
      ],
      "stateMutability": "nonpayable",
      "type": "constructor"
    },
    {
      "inputs": [
        {
          "internalType": "address",
          "name": "owner",
          "type": "address"
        }
      ],
      "name": "OwnableInvalidOwner",
      "type": "error"
    },
    {
      "inputs": [
        {
          "internalType": "address",
          "name": "account",
          "type": "address"
        }
      ],
      "name": "OwnableUnauthorizedAccount",
      "type": "error"
    },
    {
      "anonymous": false,
      "inputs": [
        {
          "indexed": true,
          "internalType": "address",
          "name": "previousOwner",
          "type": "address"
        },
        {
          "indexed": true,
          "internalType": "address",
          "name": "newOwner",
          "type": "address"
        }
      ],
      "name": "OwnershipTransferred",
      "type": "event"
    },
    {
      "anonymous": false,
      "inputs": [
        {
          "indexed": true,
          "internalType": "uint256",
          "name": "agentId",
          "type": "uint256"
        },
        {
          "indexed": false,
          "internalType": "uint256",
          "name": "totalTrades",
          "type": "uint256"
        },
        {
          "indexed": false,
          "internalType": "int256",
          "name": "totalPnL",
          "type": "int256"
        },
        {
          "indexed": false,
          "internalType": "uint256",
          "name": "successRate",
          "type": "uint256"
        }
      ],
      "name": "PerformanceUpdated",
      "type": "event"
    },
    {
      "anonymous": false,
      "inputs": [
        {
          "indexed": true,
          "internalType": "uint256",
          "name": "agentId",
          "type": "uint256"
        },
        {
          "indexed": true,
          "internalType": "address",
          "name": "tokenIn",
          "type": "address"
        },
        {
          "indexed": true,
          "internalType": "address",
          "name": "tokenOut",
          "type": "address"
        },
        {
          "indexed": false,
          "internalType": "uint256",
          "name": "amountIn",
          "type": "uint256"
        },
        {
          "indexed": false,
          "internalType": "uint256",
          "name": "amountOut",
          "type": "uint256"
        },
        {
          "indexed": false,
          "internalType": "int256",
          "name": "pnl",
          "type": "int256"
        }
      ],
      "name": "TradeRecorded",
      "type": "event"
    },
    {
      "inputs": [
        {
          "internalType": "uint256",
          "name": "",
          "type": "uint256"
        }
      ],
      "name": "agentPerformance",
      "outputs": [
        {
          "internalType": "uint256",
          "name": "totalTrades",
          "type": "uint256"
        },
        {
          "internalType": "uint256",
          "name": "successfulTrades",
          "type": "uint256"
        },
        {
          "internalType": "uint256",
          "name": "totalVolume",
          "type": "uint256"
        },
        {
          "internalType": "int256",
          "name": "totalPnL",
          "type": "int256"
        },
        {
          "internalType": "uint256",
          "name": "lastUpdated",
          "type": "uint256"
        },
        {
          "internalType": "uint256",
          "name": "maxDrawdown",
          "type": "uint256"
        },
        {
          "internalType": "uint256",
          "name": "sharpeRatio",
          "type": "uint256"
        }
      ],
      "stateMutability": "view",
      "type": "function"
    },
    {
      "inputs": [],
      "name": "agentRegistry",
      "outputs": [
        {
          "internalType": "contract IAgentRegistry",
          "name": "",
          "type": "address"
        }
      ],
      "stateMutability": "view",
      "type": "function"
    },
    {
      "inputs": [
        {
          "internalType": "uint256",
          "name": "",
          "type": "uint256"
        },
        {
          "internalType": "uint256",
          "name": "",
          "type": "uint256"
        }
      ],
      "name": "agentTradeHistory",
      "outputs": [
        {
          "internalType": "uint256",
          "name": "timestamp",
          "type": "uint256"
        },
        {
          "internalType": "address",
          "name": "tokenIn",
          "type": "address"
        },
        {
          "internalType": "address",
          "name": "tokenOut",
          "type": "address"
        },
        {
          "internalType": "uint256",
          "name": "amountIn",
          "type": "uint256"
        },
        {
          "internalType": "uint256",
          "name": "amountOut",
          "type": "uint256"
        },
        {
          "internalType": "int256",
          "name": "pnl",
          "type": "int256"
        },
        {
          "internalType": "bool",
          "name": "isProfit",
          "type": "bool"
        }
      ],
      "stateMutability": "view",
      "type": "function"
    },
    {
      "inputs": [
        {
          "internalType": "uint256",
          "name": "",
          "type": "uint256"
        },
        {
          "internalType": "uint256",
          "name": "",
          "type": "uint256"
        }
      ],
      "name": "dailyPnL",
      "outputs": [
        {
          "internalType": "uint256",
          "name": "",
          "type": "uint256"
        }
      ],
      "stateMutability": "view",
      "type": "function"
    },
    {
      "inputs": [
        {
          "internalType": "uint256",
          "name": "_agentId",
          "type": "uint256"
        },
        {
          "internalType": "uint256",
          "name": "_day",
          "type": "uint256"
        }
      ],
      "name": "getDailyPnL",
      "outputs": [
        {
          "internalType": "uint256",
          "name": "",
          "type": "uint256"
        }
      ],
      "stateMutability": "view",
      "type": "function"
    },
    {
      "inputs": [
        {
          "internalType": "uint256",
          "name": "_agentId",
          "type": "uint256"
        }
      ],
      "name": "getPerformanceMetrics",
      "outputs": [
        {
          "components": [
            {
              "internalType": "uint256",
              "name": "totalTrades",
              "type": "uint256"
            },
            {
              "internalType": "uint256",
              "name": "successfulTrades",
              "type": "uint256"
            },
            {
              "internalType": "uint256",
              "name": "totalVolume",
              "type": "uint256"
            },
            {
              "internalType": "int256",
              "name": "totalPnL",
              "type": "int256"
            },
            {
              "internalType": "uint256",
              "name": "lastUpdated",
              "type": "uint256"
            },
            {
              "internalType": "uint256",
              "name": "maxDrawdown",
              "type": "uint256"
            },
            {
              "internalType": "uint256",
              "name": "sharpeRatio",
              "type": "uint256"
            }
          ],
          "internalType": "struct PerformanceTracker.PerformanceMetrics",
          "name": "",
          "type": "tuple"
        }
      ],
      "stateMutability": "view",
      "type": "function"
    },
    {
      "inputs": [
        {
          "internalType": "uint256",
          "name": "_agentId",
          "type": "uint256"
        },
        {
          "internalType": "uint256",
          "name": "_startDay",
          "type": "uint256"
        },
        {
          "internalType": "uint256",
          "name": "_endDay",
          "type": "uint256"
        }
      ],
      "name": "getPnLRange",
      "outputs": [
        {
          "internalType": "uint256[]",
          "name": "",
          "type": "uint256[]"
        }
      ],
      "stateMutability": "view",
      "type": "function"
    },
    {
      "inputs": [
        {
          "internalType": "uint256",
          "name": "_agentId",
          "type": "uint256"
        },
        {
          "internalType": "uint256",
          "name": "_limit",
          "type": "uint256"
        }
      ],
      "name": "getTradeHistory",
      "outputs": [
        {
          "components": [
            {
              "internalType": "uint256",
              "name": "timestamp",
              "type": "uint256"
            },
            {
              "internalType": "address",
              "name": "tokenIn",
              "type": "address"
            },
            {
              "internalType": "address",
              "name": "tokenOut",
              "type": "address"
            },
            {
              "internalType": "uint256",
              "name": "amountIn",
              "type": "uint256"
            },
            {
              "internalType": "uint256",
              "name": "amountOut",
              "type": "uint256"
            },
            {
              "internalType": "int256",
              "name": "pnl",
              "type": "int256"
            },
            {
              "internalType": "bool",
              "name": "isProfit",
              "type": "bool"
            }
          ],
          "internalType": "struct PerformanceTracker.TradeRecord[]",
          "name": "",
          "type": "tuple[]"
        }
      ],
      "stateMutability": "view",
      "type": "function"
    },
    {
      "inputs": [],
      "name": "owner",
      "outputs": [
        {
          "internalType": "address",
          "name": "",
          "type": "address"
        }
      ],
      "stateMutability": "view",
      "type": "function"
    },
    {
      "inputs": [
        {
          "internalType": "uint256",
          "name": "_agentId",
          "type": "uint256"
        },
        {
          "internalType": "address",
          "name": "_tokenIn",
          "type": "address"
        },
        {
          "internalType": "address",
          "name": "_tokenOut",
          "type": "address"
        },
        {
          "internalType": "uint256",
          "name": "_amountIn",
          "type": "uint256"
        },
        {
          "internalType": "uint256",
          "name": "_amountOut",
          "type": "uint256"
        },
        {
          "internalType": "uint256",
          "name": "_expectedAmountOut",
          "type": "uint256"
        }
      ],
      "name": "recordTrade",
      "outputs": [],
      "stateMutability": "nonpayable",
      "type": "function"
    },
    {
      "inputs": [],
      "name": "renounceOwnership",
      "outputs": [],
      "stateMutability": "nonpayable",
      "type": "function"
    },
    {
      "inputs": [
        {
          "internalType": "address",
          "name": "newOwner",
          "type": "address"
        }
      ],
      "name": "transferOwnership",
      "outputs": [],
      "stateMutability": "nonpayable",
      "type": "function"
    }
  ],
  "bytecode": "0x60a060405234801561001057600080fd5b5060405161120038038061120083398101604081905261002f916100c0565b338061005557604051631e4fbdf760e01b81526000600482015260240160405180910390fd5b61005e81610070565b506001600160a01b03166080526100f0565b600080546001600160a01b038381166001600160a01b0319831681178455604051919092169283917f8be0079c531659141344cd1fd0a4f28419497f9722a3daafe3b4186f6b6457e09190a35050565b6000602082840312156100d257600080fd5b81516001600160a01b03811681146100e957600080fd5b9392505050565b6080516110f661010a600039600060be01526110f66000f3fe608060405234801561001057600080fd5b50600436106100b45760003560e01c8063c879b96911610071578063c879b969146101ea578063d84bec8514610269578063ec90841a1461028a578063f2fde38b146102aa578063f52bbdc0146102bd578063f80aef34146102dd57600080fd5b80630d1cfcae146100b957806345d36617146100fd5780634f33ec2514610166578063715018a6146101bc578063826ec1cc146101c65780638da5cb5b146101d9575b600080fd5b6100e07f000000000000000000000000000000000000000000000000000000000000000081565b6040516001600160a01b0390911681526020015b60405180910390f35b61011061010b366004610d6b565b610308565b6040516100f49190600060e082019050825182526020830151602083015260408301516040830152606083015160608301526080830151608083015260a083015160a083015260c083015160c083015292915050565b610179610174366004610d84565b6103aa565b604080519788526001600160a01b03968716602089015294909516938601939093526060850191909152608084015260a0830152151560c082015260e0016100f4565b6101c4610414565b005b6101c46101d4366004610dc2565b610428565b6000546001600160a01b03166100e0565b6102346101f8366004610d6b565b60016020819052600091825260409091208054918101546002820154600383015460048401546005850154600690950154939492939192909187565b604080519788526020880196909652948601939093526060850191909152608084015260a083015260c082015260e0016100f4565b61027c610277366004610d84565b61070a565b6040519081526020016100f4565b61029d610298366004610e1a565b61072b565b6040516100f49190610e46565b6101c46102b8366004610e8a565b610843565b6102d06102cb366004610d84565b610881565b6040516100f49190610ea5565b61027c6102eb366004610d84565b600360209081526000928352604080842090915290825290205481565b6103486040518060e00160405280600081526020016000815260200160008152602001600081526020016000815260200160008152602001600081525090565b50600090815260016020818152604092839020835160e0810185528154815292810154918301919091526002810154928201929092526003820154606082015260048201546080820152600582015460a082015260069091015460c082015290565b600260205281600052604060002081815481106103c657600080fd5b600091825260209091206007909102018054600182015460028301546003840154600485015460058601546006909601549497506001600160a01b0393841696509290911693909260ff1687565b61041c610a23565b6104266000610a50565b565b60006104348284610f4b565b90506000808213905060006040518060e00160405280428152602001896001600160a01b03168152602001886001600160a01b031681526020018781526020018681526020018481526020018315158152509050600260008a81526020019081526020016000208190806001815401808255809150506001900390600052602060002090600702016000909190919091506000820151816000015560208201518160010160006101000a8154816001600160a01b0302191690836001600160a01b0316021790555060408201518160020160006101000a8154816001600160a01b0302191690836001600160a01b03160217905550606082015181600301556080820151816004015560a0820151816005015560c08201518160060160006101000a81548160ff02191690831515021790555050506000600160008b8152602001908152602001600020905080600001600081548092919061059590610f72565b919050555082156105b8576001810180549060006105b283610f72565b91905055505b868160020160008282546105cc9190610f8b565b92505081905550838160030160008282546105e79190610f9e565b90915550504260048201819055600090610605906201518090610fdc565b90506000851361061d5761061885610ff0565b61061f565b845b60008c815260036020908152604080832085845290915281208054909190610648908490610f8b565b9091555061065790508b610aa0565b60408051898152602081018990529081018690526001600160a01b03808b1691908c16908d907f5cfb9781e5675351752718ccc6b7d3a745ab296e2b78708b6c5ab1caacc08e9b9060600160405180910390a48a7f2c7e5668f36abc83ae57f0705151dfc9ef407cadf9aa46150b267fb3db592534836000015484600301546106df8f610b6f565b6040805193845260208401929092529082015260600160405180910390a25050505050505050505050565b60008281526003602090815260408083208484529091529020545b92915050565b6060828210156107775760405162461bcd60e51b8152602060048201526012602482015271496e76616c696420646174652072616e676560701b60448201526064015b60405180910390fd5b6000610783848461100c565b61078e906001610f8b565b905060008167ffffffffffffffff8111156107ab576107ab61101f565b6040519080825280602002602001820160405280156107d4578160200160208202803683370190505b50905060005b82811015610839576000878152600360205260408120906107fb8389610f8b565b81526020019081526020016000205482828151811061081c5761081c611035565b60209081029190910101528061083181610f72565b9150506107da565b5095945050505050565b61084b610a23565b6001600160a01b03811661087557604051631e4fbdf760e01b81526000600482015260240161076e565b61087e81610a50565b50565b60008281526002602052604090208054606091908315806108a157508084115b156108aa578093505b60008467ffffffffffffffff8111156108c5576108c561101f565b60405190808252806020026020018201604052801561094a57816020015b6109376040518060e001604052806000815260200160006001600160a01b0316815260200160006001600160a01b031681526020016000815260200160008152602001600081526020016000151581525090565b8152602001906001900390816108e35790505b50905060005b8581101561083957838161096560018661100c565b61096f919061100c565b8154811061097f5761097f611035565b60009182526020918290206040805160e08101825260079093029091018054835260018101546001600160a01b03908116948401949094526002810154909316908201526003820154606082015260048201546080820152600582015460a082015260069091015460ff16151560c08201528251839083908110610a0557610a05611035565b60200260200101819052508080610a1b90610f72565b915050610950565b6000546001600160a01b031633146104265760405163118cdaa760e01b815233600482015260240161076e565b600080546001600160a01b038381166001600160a01b0319831681178455604051919092169283917f8be0079c531659141344cd1fd0a4f28419497f9722a3daafe3b4186f6b6457e09190a35050565b60008181526001602090815260408083206002928390529220805490911115610ac857505050565b6000806000805b8454811015610b4e57848181548110610aea57610aea611035565b90600052602060002090600702016005015483610b079190610f9e565b925083831315610b15578293505b6000610b218486610f4b565b9050600081138015610b3257508281115b15610b3b578092505b5080610b4681610f72565b915050610acf565b5060058501819055610b5f86610bb2565b8560060181905550505050505050565b600081815260016020526040812080548203610b8e5750600092915050565b80546001820154610ba19061271061104b565b610bab9190610fdc565b9392505050565b60008181526002602052604081208054600a1115610bd35750600092915050565b6000805b8254811015610c2357828181548110610bf257610bf2611035565b90600052602060002090600702016005015482610c0f9190610f9e565b915080610c1b81610f72565b915050610bd7565b508154600090610c339083611062565b90506000805b8454811015610c9f57600083868381548110610c5757610c57611035565b906000526020600020906007020160050154610c739190610f4b565b9050610c7f8180611090565b610c899084610f8b565b9250508080610c9790610f72565b915050610c39565b508354610cac9082610fdc565b90506000610cb982610d0a565b905080600003610cd0575060009695505050505050565b8060008413610ce757610ce284610ff0565b610ce9565b835b610cf59061271061104b565b610cff9190610fdc565b979650505050505050565b600081600003610d1c57506000919050565b60006002610d2b846001610f8b565b610d359190610fdc565b9050825b80821015610bab575080600281610d508187610fdc565b610d5a9190610f8b565b610d649190610fdc565b9150610d39565b600060208284031215610d7d57600080fd5b5035919050565b60008060408385031215610d9757600080fd5b50508035926020909101359150565b80356001600160a01b0381168114610dbd57600080fd5b919050565b60008060008060008060c08789031215610ddb57600080fd5b86359550610deb60208801610da6565b9450610df960408801610da6565b9350606087013592506080870135915060a087013590509295509295509295565b600080600060608486031215610e2f57600080fd5b505081359360208301359350604090920135919050565b6020808252825182820181905260009190848201906040850190845b81811015610e7e57835183529284019291840191600101610e62565b50909695505050505050565b600060208284031215610e9c57600080fd5b610bab82610da6565b602080825282518282018190526000919060409081850190868401855b82811015610f2857815180518552868101516001600160a01b0390811688870152868201511686860152606080820151908601526080808201519086015260a0808201519086015260c09081015115159085015260e09093019290850190600101610ec2565b5091979650505050505050565b634e487b7160e01b600052601160045260246000fd5b8181036000831280158383131683831282161715610f6b57610f6b610f35565b5092915050565b600060018201610f8457610f84610f35565b5060010190565b8082018082111561072557610725610f35565b8082018281126000831280158216821582161715610fbe57610fbe610f35565b505092915050565b634e487b7160e01b600052601260045260246000fd5b600082610feb57610feb610fc6565b500490565b6000600160ff1b820161100557611005610f35565b5060000390565b8181038181111561072557610725610f35565b634e487b7160e01b600052604160045260246000fd5b634e487b7160e01b600052603260045260246000fd5b808202811582820484141761072557610725610f35565b60008261107157611071610fc6565b600160ff1b82146000198414161561108b5761108b610f35565b500590565b80820260008212600160ff1b841416156110ac576110ac610f35565b818105831482151761072557610725610f3556fea264697066735822122096dfadefc50fb0e236da3bd74ad01259138845d0ec4fdb9e9d851cd69c7454e464736f6c63430008140033",
  "linkReferences": {},
  "deployedLinkReferences": {}
}