{
  "_format": "hh-sol-artifact-1",
  "contractName": "AgentRegistry",
  "sourceName": "contracts/AgentRegistry.sol",
  "abi": [
    {
      "inputs": [],
      "stateMutability": "nonpayable",
      "type": "constructor"
    },
    {
      "inputs": [
        {
          "internalType": "address",
          "name": "owner",
          "type": "address"
        }
      ],
      "name": "OwnableInvalidOwner",
      "type": "error"
    },
    {
      "inputs": [
        {
          "internalType": "address",
          "name": "account",
          "type": "address"
        }
      ],
      "name": "OwnableUnauthorizedAccount",
      "type": "error"
    },
    {
      "inputs": [],
      "name": "ReentrancyGuardReentrantCall",
      "type": "error"
    },
    {
      "anonymous": false,
      "inputs": [
        {
          "indexed": true,
          "internalType": "uint256",
          "name": "agentId",
          "type": "uint256"
        },
        {
          "indexed": false,
          "internalType": "bytes32",
          "name": "oldConfigHash",
          "type": "bytes32"
        },
        {
          "indexed": false,
          "internalType": "bytes32",
          "name": "newConfigHash",
          "type": "bytes32"
        }
      ],
      "name": "AgentConfigUpdated",
      "type": "event"
    },
    {
      "anonymous": false,
      "inputs": [
        {
          "indexed": true,
          "internalType": "uint256",
          "name": "agentId",
          "type": "uint256"
        },
        {
          "indexed": true,
          "internalType": "address",
          "name": "owner",
          "type": "address"
        },
        {
          "indexed": false,
          "internalType": "string",
          "name": "name",
          "type": "string"
        },
        {
          "indexed": false,
          "internalType": "enum AgentRegistry.Strategy",
          "name": "strategy",
          "type": "uint8"
        },
        {
          "indexed": false,
          "internalType": "enum AgentRegistry.RiskLevel",
          "name": "riskLevel",
          "type": "uint8"
        },
        {
          "indexed": false,
          "internalType": "uint256",
          "name": "allocatedAmount",
          "type": "uint256"
        }
      ],
      "name": "AgentRegistered",
      "type": "event"
    },
    {
      "anonymous": false,
      "inputs": [
        {
          "indexed": true,
          "internalType": "uint256",
          "name": "agentId",
          "type": "uint256"
        },
        {
          "indexed": false,
          "internalType": "enum AgentRegistry.AgentStatus",
          "name": "oldStatus",
          "type": "uint8"
        },
        {
          "indexed": false,
          "internalType": "enum AgentRegistry.AgentStatus",
          "name": "newStatus",
          "type": "uint8"
        }
      ],
      "name": "AgentStatusUpdated",
      "type": "event"
    },
    {
      "anonymous": false,
      "inputs": [
        {
          "indexed": true,
          "internalType": "address",
          "name": "previousOwner",
          "type": "address"
        },
        {
          "indexed": true,
          "internalType": "address",
          "name": "newOwner",
          "type": "address"
        }
      ],
      "name": "OwnershipTransferred",
      "type": "event"
    },
    {
      "inputs": [
        {
          "internalType": "uint256",
          "name": "",
          "type": "uint256"
        }
      ],
      "name": "agents",
      "outputs": [
        {
          "internalType": "uint256",
          "name": "id",
          "type": "uint256"
        },
        {
          "internalType": "address",
          "name": "owner",
          "type": "address"
        },
        {
          "internalType": "string",
          "name": "name",
          "type": "string"
        },
        {
          "internalType": "enum AgentRegistry.Strategy",
          "name": "strategy",
          "type": "uint8"
        },
        {
          "internalType": "enum AgentRegistry.RiskLevel",
          "name": "riskLevel",
          "type": "uint8"
        },
        {
          "internalType": "uint256",
          "name": "allocatedAmount",
          "type": "uint256"
        },
        {
          "internalType": "enum AgentRegistry.AgentStatus",
          "name": "status",
          "type": "uint8"
        },
        {
          "internalType": "bytes32",
          "name": "configHash",
          "type": "bytes32"
        },
        {
          "internalType": "uint256",
          "name": "createdAt",
          "type": "uint256"
        },
        {
          "internalType": "uint256",
          "name": "updatedAt",
          "type": "uint256"
        }
      ],
      "stateMutability": "view",
      "type": "function"
    },
    {
      "inputs": [
        {
          "internalType": "bytes32",
          "name": "",
          "type": "bytes32"
        }
      ],
      "name": "configHashes",
      "outputs": [
        {
          "internalType": "bool",
          "name": "",
          "type": "bool"
        }
      ],
      "stateMutability": "view",
      "type": "function"
    },
    {
      "inputs": [
        {
          "internalType": "uint256",
          "name": "_agentId",
          "type": "uint256"
        }
      ],
      "name": "getAgent",
      "outputs": [
        {
          "components": [
            {
              "internalType": "uint256",
              "name": "id",
              "type": "uint256"
            },
            {
              "internalType": "address",
              "name": "owner",
              "type": "address"
            },
            {
              "internalType": "string",
              "name": "name",
              "type": "string"
            },
            {
              "internalType": "enum AgentRegistry.Strategy",
              "name": "strategy",
              "type": "uint8"
            },
            {
              "internalType": "enum AgentRegistry.RiskLevel",
              "name": "riskLevel",
              "type": "uint8"
            },
            {
              "internalType": "uint256",
              "name": "allocatedAmount",
              "type": "uint256"
            },
            {
              "internalType": "enum AgentRegistry.AgentStatus",
              "name": "status",
              "type": "uint8"
            },
            {
              "internalType": "bytes32",
              "name": "configHash",
              "type": "bytes32"
            },
            {
              "internalType": "uint256",
              "name": "createdAt",
              "type": "uint256"
            },
            {
              "internalType": "uint256",
              "name": "updatedAt",
              "type": "uint256"
            }
          ],
          "internalType": "struct AgentRegistry.Agent",
          "name": "",
          "type": "tuple"
        }
      ],
      "stateMutability": "view",
      "type": "function"
    },
    {
      "inputs": [
        {
          "internalType": "address",
          "name": "_owner",
          "type": "address"
        }
      ],
      "name": "getAgentsByOwner",
      "outputs": [
        {
          "internalType": "uint256[]",
          "name": "",
          "type": "uint256[]"
        }
      ],
      "stateMutability": "view",
      "type": "function"
    },
    {
      "inputs": [],
      "name": "getTotalAgents",
      "outputs": [
        {
          "internalType": "uint256",
          "name": "",
          "type": "uint256"
        }
      ],
      "stateMutability": "view",
      "type": "function"
    },
    {
      "inputs": [],
      "name": "owner",
      "outputs": [
        {
          "internalType": "address",
          "name": "",
          "type": "address"
        }
      ],
      "stateMutability": "view",
      "type": "function"
    },
    {
      "inputs": [
        {
          "internalType": "address",
          "name": "",
          "type": "address"
        },
        {
          "internalType": "uint256",
          "name": "",
          "type": "uint256"
        }
      ],
      "name": "ownerAgents",
      "outputs": [
        {
          "internalType": "uint256",
          "name": "",
          "type": "uint256"
        }
      ],
      "stateMutability": "view",
      "type": "function"
    },
    {
      "inputs": [
        {
          "internalType": "string",
          "name": "_name",
          "type": "string"
        },
        {
          "internalType": "enum AgentRegistry.Strategy",
          "name": "_strategy",
          "type": "uint8"
        },
        {
          "internalType": "enum AgentRegistry.RiskLevel",
          "name": "_riskLevel",
          "type": "uint8"
        },
        {
          "internalType": "uint256",
          "name": "_allocatedAmount",
          "type": "uint256"
        },
        {
          "internalType": "bytes32",
          "name": "_configHash",
          "type": "bytes32"
        }
      ],
      "name": "registerAgent",
      "outputs": [
        {
          "internalType": "uint256",
          "name": "",
          "type": "uint256"
        }
      ],
      "stateMutability": "nonpayable",
      "type": "function"
    },
    {
      "inputs": [],
      "name": "renounceOwnership",
      "outputs": [],
      "stateMutability": "nonpayable",
      "type": "function"
    },
    {
      "inputs": [
        {
          "internalType": "address",
          "name": "newOwner",
          "type": "address"
        }
      ],
      "name": "transferOwnership",
      "outputs": [],
      "stateMutability": "nonpayable",
      "type": "function"
    },
    {
      "inputs": [
        {
          "internalType": "uint256",
          "name": "_agentId",
          "type": "uint256"
        },
        {
          "internalType": "bytes32",
          "name": "_newConfigHash",
          "type": "bytes32"
        }
      ],
      "name": "updateAgentConfig",
      "outputs": [],
      "stateMutability": "nonpayable",
      "type": "function"
    },
    {
      "inputs": [
        {
          "internalType": "uint256",
          "name": "_agentId",
          "type": "uint256"
        },
        {
          "internalType": "enum AgentRegistry.AgentStatus",
          "name": "_newStatus",
          "type": "uint8"
        }
      ],
      "name": "updateAgentStatus",
      "outputs": [],
      "stateMutability": "nonpayable",
      "type": "function"
    }
  ],
  "bytecode": "0x608060405234801561001057600080fd5b50338061003757604051631e4fbdf760e01b81526000600482015260240160405180910390fd5b6100408161004f565b5060018055600060025561009f565b600080546001600160a01b038381166001600160a01b0319831681178455604051919092169283917f8be0079c531659141344cd1fd0a4f28419497f9722a3daafe3b4186f6b6457e09190a35050565b6111fa806100ae6000396000f3fe608060405234801561001057600080fd5b50600436106100b45760003560e01c80638da5cb5b116100715780638da5cb5b1461015a578063936343c514610175578063a325962b14610188578063c30c84f2146101bb578063f2fde38b146101ce578063fd4000bd146101e157600080fd5b80631ab6f888146100b95780632de5aaf7146100e25780633731a16f14610102578063513856c81461011457806362febe4f1461013d578063715018a614610150575b600080fd5b6100cc6100c7366004610bf0565b6101f4565b6040516100d99190610c12565b60405180910390f35b6100f56100f0366004610c56565b610260565b6040516100d99190610cf8565b6002545b6040519081526020016100d9565b610127610122366004610c56565b61044f565b6040516100d99a99989796959493929190610dae565b61010661014b366004610e30565b610539565b61015861056a565b005b6000546040516001600160a01b0390911681526020016100d9565b610106610183366004610e7f565b61057e565b6101ab610196366004610c56565b60056020526000908152604090205460ff1681565b60405190151581526020016100d9565b6101586101c9366004610f63565b610880565b6101586101dc366004610bf0565b610967565b6101586101ef366004610f97565b6109a5565b6001600160a01b03811660009081526004602090815260409182902080548351818402810184019094528084526060939283018282801561025457602002820191906000526020600020905b815481526020019060010190808311610240575b50505050509050919050565b610268610b56565b6002548211156102b65760405162461bcd60e51b81526020600482015260146024820152731059d95b9d08191bd95cc81b9bdd08195e1a5cdd60621b60448201526064015b60405180910390fd5b6000828152600360209081526040918290208251610140810184528154815260018201546001600160a01b031692810192909252600281018054929391929184019161030190610fb9565b80601f016020809104026020016040519081016040528092919081815260200182805461032d90610fb9565b801561037a5780601f1061034f5761010080835404028352916020019161037a565b820191906000526020600020905b81548152906001019060200180831161035d57829003601f168201915b5050509183525050600382015460209091019060ff1660028111156103a1576103a1610cb5565b60028111156103b2576103b2610cb5565b81526020016003820160019054906101000a900460ff1660028111156103da576103da610cb5565b60028111156103eb576103eb610cb5565b815260048201546020820152600582015460409091019060ff16600381111561041657610416610cb5565b600381111561042757610427610cb5565b8152600682015460208201526007820154604082015260089091015460609091015292915050565b60036020526000908152604090208054600182015460028301805492936001600160a01b039092169261048190610fb9565b80601f01602080910402602001604051908101604052809291908181526020018280546104ad90610fb9565b80156104fa5780601f106104cf576101008083540402835291602001916104fa565b820191906000526020600020905b8154815290600101906020018083116104dd57829003601f168201915b50505060038401546004850154600586015460068701546007880154600890980154969760ff808616986101009096048116975093955091909216928a565b6004602052816000526040600020818154811061055557600080fd5b90600052602060002001600091509150505481565b610572610aaf565b61057c6000610adc565b565b6000610588610b2c565b60008651116105d95760405162461bcd60e51b815260206004820152601a60248201527f4167656e74206e616d652063616e6e6f7420626520656d70747900000000000060448201526064016102ad565b600083116106395760405162461bcd60e51b815260206004820152602760248201527f416c6c6f636174656420616d6f756e74206d75737420626520677265617465726044820152660207468616e20360cc1b60648201526084016102ad565b60008281526005602052604090205460ff16156106685760405162461bcd60e51b81526004016102ad90610ff3565b6002805490600061067883611034565b9190505550600060025490506000604051806101400160405280838152602001336001600160a01b031681526020018981526020018860028111156106bf576106bf610cb5565b81526020018760028111156106d6576106d6610cb5565b81526020810187905260400160008152602080820187905242604080840182905260609093015260008581526003825282902083518155908301516001820180546001600160a01b0319166001600160a01b03909216919091179055908201519192508291600282019061074a90826110aa565b50606082015160038201805460ff1916600183600281111561076e5761076e610cb5565b0217905550608082015160038201805461ff00191661010083600281111561079857610798610cb5565b021790555060a0820151600482015560c082015160058201805460ff191660018360038111156107ca576107ca610cb5565b021790555060e0820151600682015561010082015160078201556101209091015160089091015533600081815260046020908152604080832080546001818101835591855283852001879055888452600590925291829020805460ff191690911790555183907f6641f6a2f5854707baec25c2c7fd8f77d0288babd690e1a3c9f202dfadd7417190610863908c908c908c908c9061116a565b60405180910390a350905061087760018055565b95945050505050565b60008281526003602052604090206001015482906001600160a01b031633146108dd5760405162461bcd60e51b815260206004820152600f60248201526e2737ba1030b3b2b73a1037bbb732b960891b60448201526064016102ad565b6000838152600360208190526040909120600581018054919260ff83169286929160ff1990911690600190849081111561091957610919610cb5565b021790555042600883015560405185907f478b86eae06644d0cca3c61989d6c5ff9d412579dbd6e34d6662ebb08baf940d9061095890849088906111a9565b60405180910390a25050505050565b61096f610aaf565b6001600160a01b03811661099957604051631e4fbdf760e01b8152600060048201526024016102ad565b6109a281610adc565b50565b60008281526003602052604090206001015482906001600160a01b03163314610a025760405162461bcd60e51b815260206004820152600f60248201526e2737ba1030b3b2b73a1037bbb732b960891b60448201526064016102ad565b60008281526005602052604090205460ff1615610a315760405162461bcd60e51b81526004016102ad90610ff3565b600083815260036020908152604080832060068101805480865260058552838620805460ff199081169091558887529584902080549096166001179095558690554260088201558151848152928301869052929186917f22dc0be4ff37bc21be2a179794ba7f4fbdb8808d6b499420a0f48e28dd10b7419101610958565b6000546001600160a01b0316331461057c5760405163118cdaa760e01b81523360048201526024016102ad565b600080546001600160a01b038381166001600160a01b0319831681178455604051919092169283917f8be0079c531659141344cd1fd0a4f28419497f9722a3daafe3b4186f6b6457e09190a35050565b600260015403610b4f57604051633ee5aeb560e01b815260040160405180910390fd5b6002600155565b6040518061014001604052806000815260200160006001600160a01b031681526020016060815260200160006002811115610b9357610b93610cb5565b8152602001600081526020016000815260200160006003811115610bb957610bb9610cb5565b81526000602082018190526040820181905260609091015290565b80356001600160a01b0381168114610beb57600080fd5b919050565b600060208284031215610c0257600080fd5b610c0b82610bd4565b9392505050565b6020808252825182820181905260009190848201906040850190845b81811015610c4a57835183529284019291840191600101610c2e565b50909695505050505050565b600060208284031215610c6857600080fd5b5035919050565b6000815180845260005b81811015610c9557602081850181015186830182015201610c79565b506000602082860101526020601f19601f83011685010191505092915050565b634e487b7160e01b600052602160045260246000fd5b600381106109a2576109a2610cb5565b610ce481610ccb565b9052565b60048110610ce457610ce4610cb5565b602081528151602082015260006020830151610d1f60408401826001600160a01b03169052565b506040830151610140806060850152610d3c610160850183610c6f565b91506060850151610d506080860182610cdb565b506080850151610d6360a0860182610cdb565b5060a085015160c085015260c0850151610d8060e0860182610ce8565b5060e08501516101008581019190915285015161012080860191909152909401519390920192909252919050565b8a81526001600160a01b038a16602082015261014060408201819052600090610dd98382018c610c6f565b915050610de589610ccb565b886060830152610df488610ccb565b8760808301528660a0830152610e0d60c0830187610ce8565b8460e083015283610100830152826101208301529b9a5050505050505050505050565b60008060408385031215610e4357600080fd5b610e4c83610bd4565b946020939093013593505050565b634e487b7160e01b600052604160045260246000fd5b803560038110610beb57600080fd5b600080600080600060a08688031215610e9757600080fd5b853567ffffffffffffffff80821115610eaf57600080fd5b818801915088601f830112610ec357600080fd5b813581811115610ed557610ed5610e5a565b604051601f8201601f19908116603f01168101908382118183101715610efd57610efd610e5a565b816040528281528b6020848701011115610f1657600080fd5b826020860160208301376000602084830101528099505050505050610f3d60208701610e70565b9350610f4b60408701610e70565b94979396509394606081013594506080013592915050565b60008060408385031215610f7657600080fd5b82359150602083013560048110610f8c57600080fd5b809150509250929050565b60008060408385031215610faa57600080fd5b50508035926020909101359150565b600181811c90821680610fcd57607f821691505b602082108103610fed57634e487b7160e01b600052602260045260246000fd5b50919050565b60208082526021908201527f436f6e66696775726174696f6e206861736820616c72656164792065786973746040820152607360f81b606082015260800190565b60006001820161105457634e487b7160e01b600052601160045260246000fd5b5060010190565b601f8211156110a557600081815260208120601f850160051c810160208610156110825750805b601f850160051c820191505b818110156110a15782815560010161108e565b5050505b505050565b815167ffffffffffffffff8111156110c4576110c4610e5a565b6110d8816110d28454610fb9565b8461105b565b602080601f83116001811461110d57600084156110f55750858301515b600019600386901b1c1916600185901b1785556110a1565b600085815260208120601f198616915b8281101561113c5788860151825594840194600190910190840161111d565b508582101561115a5787850151600019600388901b60f8161c191681555b5050505050600190811b01905550565b60808152600061117d6080830187610c6f565b905061118885610ccb565b84602083015261119784610ccb565b60408201939093526060015292915050565b604081016111b78285610ce8565b610c0b6020830184610ce856fea2646970667358221220f9253d0dacfed982cede98edb29ac4409921e729003b84df1cc9d2437dd6437064736f6c63430008140033",
  "linkReferences": {},
  "deployedLinkReferences": {}
}